{
	"data": {
		"bytecode": {
			"linkReferences": {},
			"object": "60806040526706f05b59d3b200005f553480156019575f80fd5b50610478806100275f395ff3fe60806040526004361061002c575f3560e01c8063af42156414610037578063c7538bf61461005f57610033565b3661003357005b5f80fd5b348015610042575f80fd5b5061005d60048036038101906100589190610253565b610089565b005b34801561006a575f80fd5b506100736101bd565b60405161008091906102a0565b60405180910390f35b5f548111156100cd576040517f08c379a00000000000000000000000000000000000000000000000000000000081526004016100c490610313565b60405180910390fd5b80471015610110576040517f08c379a00000000000000000000000000000000000000000000000000000000081526004016101079061037b565b60405180910390fd5b5f8273ffffffffffffffffffffffffffffffffffffffff1682604051610135906103c6565b5f6040518083038185875af1925050503d805f811461016f576040519150601f19603f3d011682016040523d82523d5f602084013e610174565b606091505b50509050806101b8576040517f08c379a00000000000000000000000000000000000000000000000000000000081526004016101af90610424565b60405180910390fd5b505050565b5f5481565b5f80fd5b5f73ffffffffffffffffffffffffffffffffffffffff82169050919050565b5f6101ef826101c6565b9050919050565b6101ff816101e5565b8114610209575f80fd5b50565b5f8135905061021a816101f6565b92915050565b5f819050919050565b61023281610220565b811461023c575f80fd5b50565b5f8135905061024d81610229565b92915050565b5f8060408385031215610269576102686101c2565b5b5f6102768582860161020c565b92505060206102878582860161023f565b9150509250929050565b61029a81610220565b82525050565b5f6020820190506102b35f830184610291565b92915050565b5f82825260208201905092915050565b7f52657175657374656420616d6f756e742065786365656473206c696d69742e005f82015250565b5f6102fd601f836102b9565b9150610308826102c9565b602082019050919050565b5f6020820190508181035f83015261032a816102f1565b9050919050565b7f496e73756666696369656e7420636f6e74726163742062616c616e63650000005f82015250565b5f610365601d836102b9565b915061037082610331565b602082019050919050565b5f6020820190508181035f83015261039281610359565b9050919050565b5f81905092915050565b50565b5f6103b15f83610399565b91506103bc826103a3565b5f82019050919050565b5f6103d0826103a6565b9150819050919050565b7f5472616e73666572206661696c6c6564000000000000000000000000000000005f82015250565b5f61040e6010836102b9565b9150610419826103da565b602082019050919050565b5f6020820190508181035f83015261043b81610402565b905091905056fea26469706673582212204f8248867134322d8be2b237b7041eeb843937341f1a9aa01fd77dc328a9640364736f6c634300081a0033",
			"opcodes": "PUSH1 0x80 PUSH1 0x40 MSTORE PUSH8 0x6F05B59D3B20000 PUSH0 SSTORE CALLVALUE DUP1 ISZERO PUSH1 0x19 JUMPI PUSH0 DUP1 REVERT JUMPDEST POP PUSH2 0x478 DUP1 PUSH2 0x27 PUSH0 CODECOPY PUSH0 RETURN INVALID PUSH1 0x80 PUSH1 0x40 MSTORE PUSH1 0x4 CALLDATASIZE LT PUSH2 0x2C JUMPI PUSH0 CALLDATALOAD PUSH1 0xE0 SHR DUP1 PUSH4 0xAF421564 EQ PUSH2 0x37 JUMPI DUP1 PUSH4 0xC7538BF6 EQ PUSH2 0x5F JUMPI PUSH2 0x33 JUMP JUMPDEST CALLDATASIZE PUSH2 0x33 JUMPI STOP JUMPDEST PUSH0 DUP1 REVERT JUMPDEST CALLVALUE DUP1 ISZERO PUSH2 0x42 JUMPI PUSH0 DUP1 REVERT JUMPDEST POP PUSH2 0x5D PUSH1 0x4 DUP1 CALLDATASIZE SUB DUP2 ADD SWAP1 PUSH2 0x58 SWAP2 SWAP1 PUSH2 0x253 JUMP JUMPDEST PUSH2 0x89 JUMP JUMPDEST STOP JUMPDEST CALLVALUE DUP1 ISZERO PUSH2 0x6A JUMPI PUSH0 DUP1 REVERT JUMPDEST POP PUSH2 0x73 PUSH2 0x1BD JUMP JUMPDEST PUSH1 0x40 MLOAD PUSH2 0x80 SWAP2 SWAP1 PUSH2 0x2A0 JUMP JUMPDEST PUSH1 0x40 MLOAD DUP1 SWAP2 SUB SWAP1 RETURN JUMPDEST PUSH0 SLOAD DUP2 GT ISZERO PUSH2 0xCD JUMPI PUSH1 0x40 MLOAD PUSH32 0x8C379A000000000000000000000000000000000000000000000000000000000 DUP2 MSTORE PUSH1 0x4 ADD PUSH2 0xC4 SWAP1 PUSH2 0x313 JUMP JUMPDEST PUSH1 0x40 MLOAD DUP1 SWAP2 SUB SWAP1 REVERT JUMPDEST DUP1 SELFBALANCE LT ISZERO PUSH2 0x110 JUMPI PUSH1 0x40 MLOAD PUSH32 0x8C379A000000000000000000000000000000000000000000000000000000000 DUP2 MSTORE PUSH1 0x4 ADD PUSH2 0x107 SWAP1 PUSH2 0x37B JUMP JUMPDEST PUSH1 0x40 MLOAD DUP1 SWAP2 SUB SWAP1 REVERT JUMPDEST PUSH0 DUP3 PUSH20 0xFFFFFFFFFFFFFFFFFFFFFFFFFFFFFFFFFFFFFFFF AND DUP3 PUSH1 0x40 MLOAD PUSH2 0x135 SWAP1 PUSH2 0x3C6 JUMP JUMPDEST PUSH0 PUSH1 0x40 MLOAD DUP1 DUP4 SUB DUP2 DUP6 DUP8 GAS CALL SWAP3 POP POP POP RETURNDATASIZE DUP1 PUSH0 DUP2 EQ PUSH2 0x16F JUMPI PUSH1 0x40 MLOAD SWAP2 POP PUSH1 0x1F NOT PUSH1 0x3F RETURNDATASIZE ADD AND DUP3 ADD PUSH1 0x40 MSTORE RETURNDATASIZE DUP3 MSTORE RETURNDATASIZE PUSH0 PUSH1 0x20 DUP5 ADD RETURNDATACOPY PUSH2 0x174 JUMP JUMPDEST PUSH1 0x60 SWAP2 POP JUMPDEST POP POP SWAP1 POP DUP1 PUSH2 0x1B8 JUMPI PUSH1 0x40 MLOAD PUSH32 0x8C379A000000000000000000000000000000000000000000000000000000000 DUP2 MSTORE PUSH1 0x4 ADD PUSH2 0x1AF SWAP1 PUSH2 0x424 JUMP JUMPDEST PUSH1 0x40 MLOAD DUP1 SWAP2 SUB SWAP1 REVERT JUMPDEST POP POP POP JUMP JUMPDEST PUSH0 SLOAD DUP2 JUMP JUMPDEST PUSH0 DUP1 REVERT JUMPDEST PUSH0 PUSH20 0xFFFFFFFFFFFFFFFFFFFFFFFFFFFFFFFFFFFFFFFF DUP3 AND SWAP1 POP SWAP2 SWAP1 POP JUMP JUMPDEST PUSH0 PUSH2 0x1EF DUP3 PUSH2 0x1C6 JUMP JUMPDEST SWAP1 POP SWAP2 SWAP1 POP JUMP JUMPDEST PUSH2 0x1FF DUP2 PUSH2 0x1E5 JUMP JUMPDEST DUP2 EQ PUSH2 0x209 JUMPI PUSH0 DUP1 REVERT JUMPDEST POP JUMP JUMPDEST PUSH0 DUP2 CALLDATALOAD SWAP1 POP PUSH2 0x21A DUP2 PUSH2 0x1F6 JUMP JUMPDEST SWAP3 SWAP2 POP POP JUMP JUMPDEST PUSH0 DUP2 SWAP1 POP SWAP2 SWAP1 POP JUMP JUMPDEST PUSH2 0x232 DUP2 PUSH2 0x220 JUMP JUMPDEST DUP2 EQ PUSH2 0x23C JUMPI PUSH0 DUP1 REVERT JUMPDEST POP JUMP JUMPDEST PUSH0 DUP2 CALLDATALOAD SWAP1 POP PUSH2 0x24D DUP2 PUSH2 0x229 JUMP JUMPDEST SWAP3 SWAP2 POP POP JUMP JUMPDEST PUSH0 DUP1 PUSH1 0x40 DUP4 DUP6 SUB SLT ISZERO PUSH2 0x269 JUMPI PUSH2 0x268 PUSH2 0x1C2 JUMP JUMPDEST JUMPDEST PUSH0 PUSH2 0x276 DUP6 DUP3 DUP7 ADD PUSH2 0x20C JUMP JUMPDEST SWAP3 POP POP PUSH1 0x20 PUSH2 0x287 DUP6 DUP3 DUP7 ADD PUSH2 0x23F JUMP JUMPDEST SWAP2 POP POP SWAP3 POP SWAP3 SWAP1 POP JUMP JUMPDEST PUSH2 0x29A DUP2 PUSH2 0x220 JUMP JUMPDEST DUP3 MSTORE POP POP JUMP JUMPDEST PUSH0 PUSH1 0x20 DUP3 ADD SWAP1 POP PUSH2 0x2B3 PUSH0 DUP4 ADD DUP5 PUSH2 0x291 JUMP JUMPDEST SWAP3 SWAP2 POP POP JUMP JUMPDEST PUSH0 DUP3 DUP3 MSTORE PUSH1 0x20 DUP3 ADD SWAP1 POP SWAP3 SWAP2 POP POP JUMP JUMPDEST PUSH32 0x52657175657374656420616D6F756E742065786365656473206C696D69742E00 PUSH0 DUP3 ADD MSTORE POP JUMP JUMPDEST PUSH0 PUSH2 0x2FD PUSH1 0x1F DUP4 PUSH2 0x2B9 JUMP JUMPDEST SWAP2 POP PUSH2 0x308 DUP3 PUSH2 0x2C9 JUMP JUMPDEST PUSH1 0x20 DUP3 ADD SWAP1 POP SWAP2 SWAP1 POP JUMP JUMPDEST PUSH0 PUSH1 0x20 DUP3 ADD SWAP1 POP DUP2 DUP2 SUB PUSH0 DUP4 ADD MSTORE PUSH2 0x32A DUP2 PUSH2 0x2F1 JUMP JUMPDEST SWAP1 POP SWAP2 SWAP1 POP JUMP JUMPDEST PUSH32 0x496E73756666696369656E7420636F6E74726163742062616C616E6365000000 PUSH0 DUP3 ADD MSTORE POP JUMP JUMPDEST PUSH0 PUSH2 0x365 PUSH1 0x1D DUP4 PUSH2 0x2B9 JUMP JUMPDEST SWAP2 POP PUSH2 0x370 DUP3 PUSH2 0x331 JUMP JUMPDEST PUSH1 0x20 DUP3 ADD SWAP1 POP SWAP2 SWAP1 POP JUMP JUMPDEST PUSH0 PUSH1 0x20 DUP3 ADD SWAP1 POP DUP2 DUP2 SUB PUSH0 DUP4 ADD MSTORE PUSH2 0x392 DUP2 PUSH2 0x359 JUMP JUMPDEST SWAP1 POP SWAP2 SWAP1 POP JUMP JUMPDEST PUSH0 DUP2 SWAP1 POP SWAP3 SWAP2 POP POP JUMP JUMPDEST POP JUMP JUMPDEST PUSH0 PUSH2 0x3B1 PUSH0 DUP4 PUSH2 0x399 JUMP JUMPDEST SWAP2 POP PUSH2 0x3BC DUP3 PUSH2 0x3A3 JUMP JUMPDEST PUSH0 DUP3 ADD SWAP1 POP SWAP2 SWAP1 POP JUMP JUMPDEST PUSH0 PUSH2 0x3D0 DUP3 PUSH2 0x3A6 JUMP JUMPDEST SWAP2 POP DUP2 SWAP1 POP SWAP2 SWAP1 POP JUMP JUMPDEST PUSH32 0x5472616E73666572206661696C6C656400000000000000000000000000000000 PUSH0 DUP3 ADD MSTORE POP JUMP JUMPDEST PUSH0 PUSH2 0x40E PUSH1 0x10 DUP4 PUSH2 0x2B9 JUMP JUMPDEST SWAP2 POP PUSH2 0x419 DUP3 PUSH2 0x3DA JUMP JUMPDEST PUSH1 0x20 DUP3 ADD SWAP1 POP SWAP2 SWAP1 POP JUMP JUMPDEST PUSH0 PUSH1 0x20 DUP3 ADD SWAP1 POP DUP2 DUP2 SUB PUSH0 DUP4 ADD MSTORE PUSH2 0x43B DUP2 PUSH2 0x402 JUMP JUMPDEST SWAP1 POP SWAP2 SWAP1 POP JUMP INVALID LOG2 PUSH5 0x6970667358 0x22 SLT KECCAK256 0x4F DUP3 BASEFEE DUP7 PUSH18 0x34322D8BE2B237B7041EEB843937341F1A9A LOG0 0x1F 0xD7 PUSH30 0xC328A9640364736F6C634300081A00330000000000000000000000000000 "
		},
		"gasEstimates": {
			"creation": {
				"codeDepositCost": "228800",
				"executionCost": "22372",
				"totalCost": "251172"
			},
			"external": {
				"MAX_AMOUNCT()": "2424",
				"requestTokens(address,uint256)": "infinite"
			}
		},
		"methodIdentifiers": {
			"MAX_AMOUNCT()": "c7538bf6",
			"requestTokens(address,uint256)": "af421564"
		}
	},
	"abi": [
		{
			"inputs": [],
			"name": "MAX_AMOUNCT",
			"outputs": [
				{
					"internalType": "uint256",
					"name": "",
					"type": "uint256"
				}
			],
			"stateMutability": "view",
			"type": "function"
		},
		{
			"inputs": [
				{
					"internalType": "address payable",
					"name": "receipient",
					"type": "address"
				},
				{
					"internalType": "uint256",
					"name": "amount",
					"type": "uint256"
				}
			],
			"name": "requestTokens",
			"outputs": [],
			"stateMutability": "nonpayable",
			"type": "function"
		},
		{
			"stateMutability": "payable",
			"type": "receive"
		}
	]
}